:100000006F00E05900000000DA010000DC01000090
:1000100000000000000000000000000000000000E0
:1000200000000000000000000000000000000000D0
:100030009C050000000000009C050000000000007E
:100040009C0500009C0500009C0500009C0500002C
:100050009C0500009C0500009C0500009C0500001C
:100060009C0500009C0500009C0500009C0500000C
:100070009C0500009C0500009C0500009C050000FC
:100080009C0500009C0500009C0500009C050000EC
:100090009C0500009C0500009C050000000000007D
:1000A000511126C022C206C4828282441244A24058
:1000B00031018280634E050263C305042E86AA8542
:1000C0007D5515C285466378B6006356C0000606A6
:1000D0008606E36CB6FE014563E4C500918D558D3F
:1000E00085820582F5FA82808682C93F2E858282CA
:1000F0003305A04063D70500B305B040C1B7B305D1
:10010000B0408682653F3305A0408282868263C705
:100110000500634905005D372E858282B305B04036
:10012000E35B05FE3305A040513F3305B0408282BA
:1001300000003D432A876373C3029377F700BDEF46
:10014000ADE5937606FF3D8ABA960CC34CC30CC747
:100150004CC74107E36BD7FE11E28280B306C34070
:100160008A069702000096966780A6002307B700CC
:10017000A306B7002306B700A305B7002305B70001
:10018000A304B7002304B700A303B7002303B700F9
:10019000A302B7002302B700A301B7002301B700F1
:1001A000A300B7002300B700828093F5F50F939664
:1001B0008500D58D93960501D58D61B7939627005F
:1001C0009702000096968682E78086FA9680C1178D
:1001D0001D8F3E96E374C3F8A5B701A0B707EFBE25
:1001E00037E700E0938707083CC701A0EFF25FEB19
:1001F000130181FC2AC60565AE8413050583854578
:100200003E8432C436C23AC002CE02D002D202D4F8
:1002100002D602D802DA02C802CA231C0100012D4C
:1002200085450545252592460247E14736853ED25C
:100230006C088D47F8863ED0D52932430C082285BC
:10024000231A6100E480231B010023190100230C01
:100250000100212D2246C167938707073ED42C1049
:10026000914722852316F1022317C10202D8A9253E
:100270002C1022857D2522858145EF00007A22857C
:100280008145EF00607A85452285EF006077130194
:10029000810321BDEFF2DFE01301C1FC2A842EC2ED
:1002A000B28481451306C002280036C05935854501
:1002B0000545B92B2285612E924782462C003EC40B
:1002C000C1473EC8930700083ECE930700103ED0BA
:1002D000930700403ED2930700023ED422858D67EB
:1002E00036CA3ED626C602CC02D8DD2E85452285EA
:1002F00025211301410355BBEFF29FDA51118545CA
:100300001305000302C002C202C4152393070006AE
:10031000371501400D447C808A85C147130505408F
:1003200022C23EC42121A1477C808A859307800296
:100330003715014022C23EC4D52E3101BDB3EFF2C4
:100340003FD605459521CD20F52241659D210145EA
:100350004529B7040020C52545379382440003D6BC
:10036000020037340140B7160140930704C0054727
:100370009386064081452545953D37030240130588
:1003800083058D4613864400930544C321370546F3
:1003900093050010130504C0B92D8545130504C04D
:1003A000192D8545130504C01D259382440003D6ED
:1003B0000200B70700400547B716014081452545B3
:1003C000353537030240B70500408D461305C3019C
:1003D000138644009385C503753D054693050010BB
:1003E00037050040092D854537050040E92385453F
:1003F00037050040E92BB707002037070020838727
:10040000070203070700930630061146BA97E20772
:10041000E18763C7F600E34BF6FE95470547FDB756
:10042000930740067D57DDB7EFF29FC737140240B0
:100430001C403707FFF8611193E717001CC05C40B0
:100440004145F98F5CC01C403707F7FE7D17F98FD7
:100450001CC01C403707FCFF7D17F98F1CC05C4097
:1004600041777D17F98F5CC0B7079F001CC44126F8
:100470001C4C3706020093E707021CCCB71701405B
:1004800003A70740938607401377F7F023A0E740C0
:1004900003A707401367070823A0E74089479CCAC2
:1004A00002C002C21C4C37070140A16693E7170047
:1004B0001CCC5C43D58F5CC31C404167B71602401F
:1004C000D98F1CC009679C42F18F3EC282478507C5
:1004D0003EC0924781E78247E397E7FEB7170240A5
:1004E0009C431397E7006355070485473EC21247B4
:1004F0008547631DF702B72702409843B7160240AD
:10050000719B98C3984398C3B7170240D8431367A9
:100510000702D8C3D843719BD8C3D84313671700C9
:10052000D8C31147DC42B18BE39EE7FE2101B5BE83
:1005300002C275BFEFF2DFB6371702405C433704E3
:1005400000209146B18B1304C4016385D700A146F6
:100550006380D704B7376E01938707601CC0B71656
:100560000240DC420840918313F7F700B7070020F0
:100570009387C700BA978C23DC4293F5F50F93F766
:1005800007083357B50099E3153E2A8718C031BED6
:100590005C43B777DC02938707C0C9B701A0970116
:1005A000002093812128138101FE1305000A97057D
:1005B0000020938525A5170600201306A6A463FA3C
:1005C000C5008322050023A0550011059105E3EA2B
:1005D000C5FE170500001305A54997050020938562
:1005E00065A2170600201306E6A363FAC50083225E
:1005F000050023A0550011059105E3EAC5FE170586
:100600000020130525A29385C1806377B5002320C0
:1006100005001105E36DB5FEB72200009382028844
:10062000739002308D427390428097020000938253
:10063000629D93E2320073905230EFF0FFDE97023A
:100640000000938202D073901234730020301C415A
:1006500041677917F98F1CC123200500232205006B
:1006600023240500B70702402326050013878700CF
:100670006317E500D8431367F700D8C38280138758
:10068000C7016316E500D8431367070FFDB713874B
:1006900007036318E500D8438566938606F0558FF7
:1006A000E9BF138747046315E500D843BD66C5BF9E
:1006B000138787056316E500D843B7060F00C5B753
:1006C0001387C7066316E500D843B706F000C1BF1D
:1006D00013870708E314E5FAD843B706000FC1B73C
:1006E0001841E177BD0794517D8F9C45D58F944982
:1006F000D58FD449D58F944DD58FD44DD58FD45126
:10070000D58F9455D58FD98F1CC1DC455CC19C41D8
:100710001CC5DC415CC582801C4189C593E717007C
:100720001CC1828041677917F98FDDBF944593F72B
:10073000060193F2F60081C7DC41B3E2F20083D3F5
:10074000050093F7F30FA5C303230500611122C22F
:1007500026C08147130480029304800405473316A2
:10076000F70033F7C3006312E602939527003D4775
:100770003317B7001347F7FF33736700B395B20021
:1007800033E36500639D860050C985072147E397E1
:10079000E7FC124423206500824421018280E39615
:1007A00096FE10C9DDB78280B707002023A2A702FA
:1007B0008280B71702409843C176FD16758F98C3A3
:1007C0009843B706FCFFFD16758F98C34167630712
:1007D000E500370704006307E50082809843498FEE
:1007E00098C382809843B7060500558FD5BF371749
:1007F00002401C430E0593F777F05D8D08C382809D
:10080000371702405C4393F7F7F05D8D48C3828051
:1008100099C5371702405C4B5D8D48CB8280B71776
:100820000240D84B1345F5FF798DC8CB828099C51E
:10083000371702401C4F5D8D08CF8280B7170240EA
:10084000984F1345F5FF798D88CF828099C537176A
:1008500002405C4F5D8D48CF8280B7170240D84F71
:100860001345F5FF798DC8CF82801E2137370140AF
:10087000130707C0C207C1836306E50037070040BE
:100880006316E500BA2193F7F7F8D98FFA2193F7A9
:10089000F7CFC207C183D98F1EA1DE215EB59E218D
:1008A0001EB5B7370140938707C06314F5009C2538
:1008B0001EB985475EA982801E31922103D325008F
:1008C000C207C183F99BC207C1831EB11E315621E5
:1008D0001A2DC207C183420741831377C7F8518F8E
:1008E0009225F59BC20633666600D18F37360140EC
:1008F000130606C0C1826310C502B225DD9B03D377
:10090000E500D18FD221ED9B93F6F6CFD18FD22582
:1009100033666600D18E56A11AADFA2158D91EB1A0
:1009200082801E31922103D38500C207C18393F7D1
:10093000F7EFC207C1831EB11E3156215A2DC207DF
:10094000C183420741831377C7F8518FB22193F7D0
:10095000F7DFC206336666002206D18F13960701C1
:10096000B7370140938707C0C1824182631FF502F8
:10097000FD779387F77FF18FB22503D3C500220659
:10098000D18FD221C207C183220693F7F7BFD18F3F
:1009900013960701F577FD17FD8EFE254182B3E71B
:1009A00067009207DD8EC206C182FE2156A15AADB4
:1009B0005CDD12B182801E2189C593E717001EA15C
:1009C0008280C207C183F99BC207C183CDBF835711
:1009D000450491C52167D98F2312F5048280C6078B
:1009E000C583DDBF5E2501C6DD8D4EA5828093C522
:1009F000F5FFFD8DDDBFEFF2AFEAED376FF0EFEA07
:100A00001E2189C593E707081EA18280C207C18302
:100A100093F7F7F7C207C183C5BF1E2DC207C18375
:100A2000DD9BDD8D0EAD82805E2DC207C183DD9B17
:100A3000DD8D4EAD8280EFF2AFE6B707002003A553
:100A4000C701B7157A0093850520EFF02FE71375DE
:100A5000F50F2385A18093175500898F8A073E954E
:0C0A60000E052394A1806FF04FE400000D
:100A6C00010000000A0032005000000001020304E3
:100A7C0005060708010203040506070800127A00A0
:00000001FF
