:100000006F00C042000000004A0100004C010000E7
:1000100000000000000000000000000000000000E0
:1000200000000000000000000000000000000000D0
:100030002A040000000000002A0400000000000064
:100040002A0400002A0400002A0400002A040000F8
:100050002A0400002A0400002A0400002A040000E8
:100060002A0400002A0400002A0400002A040000D8
:100070002A0400002A0400002A0400002A040000C8
:100080002A0400002A0400002A0400002A040000B8
:100090002A0400002A0400002A04000000000000D6
:1000A000511126C022C206C4828282441244A24058
:1000B000310182802A86014593F6150091C232955E
:1000C00085810606F5F9828000000000634E050276
:1000D00063C305042E86AA857D5515C285466378BF
:1000E000B6006356C00006068606E36CB6FE014500
:1000F00063E4C500918D558D85820582F5FA828075
:100100008682C93F2E8582823305A04063D70500D1
:10011000B305B040C1B7B305B0408682653F330533
:10012000A0408282868263C70500634905005D376F
:100130002E858282B305B040E35B05FE3305A04007
:10014000513F3305B0408282000001A0B707EFBEE7
:1001500037E700E0938707083CC701A0EFF25FF4A0
:100160001165111185451305050202C002C202C4C2
:1001700002C602C802CA02CC6521930700027C8035
:10018000371401408D473EC28A85E147130504407C
:100190003EC49926930700047C808A859147130505
:1001A00004403EC4152EF167374401409387072071
:1001B0003EC66C00B7070C00130504803ECA02C897
:1001C000231C0100AD298545130504800D2B710109
:1001D000E9BDEFF2FFEC411185451305000302C2B2
:1001E00002C402C63529B71601400D441307800228
:1001F000E1474C00138506403AC67C8222C4E92CB4
:10020000B71601408547C1444C00138506407C82E7
:100210003EC022C426C6C924930680071307800265
:100220004C003715014074823AC622C475248247B7
:100230004C00371501407C8222C426C6712C410136
:10024000ADB5EFF2FFE537150140054685451305CD
:1002500005403126854537150140ED2C1306F5FF85
:100260003336C000854537150140D52C13054006AF
:10027000F12925BDEFF2DFE20545FD249922592938
:100280007165130505200123D13DA1375D3FFDBFF9
:10029000EFF21FE1371402401C403707FFF86111ED
:1002A00093E717001CC05C404145F98F5CC01C40BF
:1002B0003707F7FE7D17F98F1CC01C403707FCFF7E
:1002C0007D17F98F1CC05C4041777D17F98F5CC0AA
:1002D000B7079F001CC4712C1C4C3706020093E723
:1002E00007021CCCB717014003A7074093860740BD
:1002F0001377F7F023A0E74003A707401367070829
:1003000023A0E74089479CCA02C002C21C4C3707A1
:100310000140A16693E717001CCC5C43D58F5CC3FA
:100320001C404167B7160240D98F1CC009679C4228
:10033000F18F3EC2824785073EC0924781E78247E0
:10034000E397E7FEB71702409C431397E700635813
:10035000070685473EC2124785476310F706B72751
:1003600002409843C176FD16719B98C3984313676A
:10037000170098C3B7170240D843D8C3D843758F26
:10038000D8C3D843C166558FD8C39843B706000178
:10039000558F98C3984393166700E3DD06FED84354
:1003A000B7160240719BD8C3D84313672700D8C340
:1003B0002147DC42B18BE39EE7FE2101FDB102C281
:1003C00059BFEFF2FFCD371702405C4337040020DE
:1003D0009146B18B130404016385D700A146638065
:1003E000D704B7376E01938707601CC0B716024069
:1003F000DC420840918313F7F700B707002093878A
:100400000700BA978C23DC4293F5F50F93F70708A2
:100410003357B50099E37D392A8718C079B15C4319
:10042000B777DC02938707C0C9B701A09701002006
:100430009381C140138181FC1305000A97050020B8
:10044000938545BC170600201306C6BB63FAC5009A
:100450008322050023A0550011059105E3EAC5FE9E
:100460001305C07D970500209385C5B917060020A8
:100470001306C6BC63FAC5008322050023A05500FD
:1004800011059105E3EAC5FE17050020130505BB1C
:10049000938581806377B500232005001105E36D06
:1004A000B5FEB722000093820288739002308D421D
:1004B00073904280970200009382C2B493E23200AC
:1004C00073905230EFF0DFDC970200009382C2DAC3
:1004D0007390123473002030944593F7060193F221
:1004E000F60081C7DC41B3E2F20083D3050093F745
:1004F000F30FA5C303230500611122C226C0814763
:10050000130480029304800405473316F70033F781
:10051000C3006312E602939527003D473317B700E7
:100520001347F7FF33736700B395B20033E36500F9
:10053000639D860050C985072147E397E7FC124475
:1005400023206500824421018280E39696FE10C933
:10055000DDB7828008456D8D3335A000828019C2D9
:100560000CC982804CC98280B707002023ACA70247
:100570008280371702401C430E0593F777F05D8D9C
:1005800008C38280EFF2DFB1371702405C43914627
:100590002A84B18B6385D700A146638DD706B73710
:1005A0006E01938707601CC0B7160240DC4291833E
:1005B00013F7F700B707002093878702BA978C23B9
:1005C000DC42184093F5F50F93F707083355B70051
:1005D00099E33A85013648C008C448C4B7170240B9
:1005E000DC438D46AD83FD8B13D737008A07F18B33
:1005F000D98F13F6370113F7370063F4C60013875A
:1006000047FFB707002093874701BA978C23D93457
:1006100008C861BC5C43B777DC02938707C061B749
:1006200099C5371702401C4F5D8D08CF8280B717E0
:100630000240984F1345F5FF798D88CF8280EFF205
:100640003FA61629F577FD17F58FF621DA2521113A
:10065000D58F1EA95625FD779387379FF58FD62115
:100660002A842EC0D58F9625D58FB625D58F5EA529
:100670005E29C207C18393F7F7CF5D8F5AA948005F
:100680001137B7470140938707808245631DF40403
:10069000C2475A24139517003E9542070E0541871D
:1006A0003E958C416353070486052D34930540061F
:1006B0002AC00D34824793144500930540063E85B9
:1006C00081345E24C207C18763D307020E059305F8
:1006D000400613052503FD3A1D89C98CC204C1805B
:1006E00006A46101D9B2B2476DB78A057DBF120574
:1006F0009305400613052503F13A3D89F9BF91C5DD
:100700005E250967D98F5EA582805A25F977FD1786
:10071000F98FD5BFEFF2DF98B707002003A50701D7
:10072000B7157A009385052075321375F50FB70755
:100730000020238FA70293175500898F8A073E95C3
:100740000E05B7070020239EA70285B2EFF25F9542
:1007500037F400E05C40AA85F99B5CC0B707002035
:1007600003D5C703813A08C8232404001C4093E73B
:1007700017001CC0B7F700E0D843058B75DF98431E
:10078000799B98C31DB2EFF2BF912A8411651111B4
:100790008545130505026935930700027C803715EE
:1007A00001408D473EC28A85E147130505403EC49E
:1007B000253322C637440140B70708006C001305F3
:1007C00004803ECA02C8231C0100953D85451305DF
:0C07D0000480353771016FF05F8D000070
:1007DC0001020304050607080102030405060708C5
:1007EC00006CDC020204060804080C100810182027
:1007FC0010203040204060800102030405060708E9
:08080C000102030405060708C0
:00000001FF
