:100000006F00805B00000000F2010000F4010000BE
:1000100000000000000000000000000000000000E0
:1000200000000000000000000000000000000000D0
:10003000B605000000000000B6050000000000004A
:10004000B6050000B6050000B6050000B6050000C4
:10005000B6050000B6050000B6050000B6050000B4
:10006000B6050000B6050000B6050000B6050000A4
:10007000B6050000B6050000B6050000B605000094
:10008000B6050000B6050000B6050000B605000084
:10009000B6050000B6050000B6050000000000002F
:1000A000511126C022C206C4828282441244A24058
:1000B000310182802A86014593F6150091C232955E
:1000C00085810606F5F9828000000000634E050276
:1000D00063C305042E86AA857D5515C285466378BF
:1000E000B6006356C00006068606E36CB6FE014500
:1000F00063E4C500918D558D85820582F5FA828075
:100100008682C93F2E8582823305A04063D70500D1
:10011000B305B040C1B7B305B0408682653F330533
:10012000A0408282868263C70500634905005D376F
:100130002E858282B305B040E35B05FE3305A04007
:10014000513F3305B040828200003D432A876373EC
:10015000C3029377F700BDEFADE5937606FF3D8AC6
:10016000BA960CC34CC30CC74CC74107E36BD7FE10
:1001700011E28280B306C3408A0697020000969679
:100180006780A6002307B700A306B7002306B700C1
:10019000A305B7002305B700A304B7002304B700E5
:1001A000A303B7002303B700A302B7002302B700DD
:1001B000A301B7002301B700A300B7002300B700D5
:1001C000828093F5F50F93968500D58D9396050162
:1001D000D58D61B793962700970200009696868288
:1001E000E78086FA9680C1171D8F3E96E374C3F8A8
:1001F000A5B701A0B707EFBE37E700E09387070870
:100200003CC701A0EFF2DFE9130181FC2AC60565B6
:10021000AE841305058385453E8432C436C23AC098
:1002200002CE02D002D202D402D602D802DA02C82A
:1002300002CA231C0100552D85450545F12592462E
:100240000247E14736853ED26C088D47F8863ED09E
:10025000DD2932430C082285231A6100E480231B28
:10026000010023190100230C0100752D2246C167EE
:10027000938707073ED42C10914722852316F1025D
:100280002317C10202D8FD2522858145EF00607B3E
:1002900085452285EF0040791301810339B5EFF2DE
:1002A0003FE01301C1FC2A842EC2B28481451306AB
:1002B000C002280036C0513D85450545012D2285E7
:1002C0006526924782462C003EC4C1473EC893072C
:1002D00000083ECE930700103ED0930700403ED268
:1002E000930700023ED422858D6736CA3ED626C6C5
:1002F00002CC02D819218545228525291301410305
:100300006DB3EFF2FFD91165111185451305050293
:1003100002C002C202C402C602C802CA02CCF12351
:10032000930700027C80371401408D473EC28A85C6
:10033000E147130504403EC43921930700047C8043
:100340008A859147130504403EC4F52EF167374472
:100350000140938707203EC66C00B7070C001305C9
:1003600004803ECA02C8231C0100DD258545130513
:100370000480EF00A07A71010DBBEFF27FD205453A
:100380008921C120E9224165912101457921EF00B0
:10039000407A716513050520EF009000B704002036
:1003A0008D3703D6440037340140B7160140930718
:1003B00004C00547938606408545130530069935E8
:1003C000370502408D4613864400930544C3130548
:1003D0008505F1350546130504C0930500108125F8
:1003E000130504C08545E52B130504C0854521256B
:1003F0009384440037040020B707002093060400CC
:1004000003C687049822938787043297620761871F
:10041000130630066358E6001307400698A37D577D
:1004200098A221A0634B070098A39C232945DEA036
:10043000BEA09EA0EF002073C1B723800700054730
:10044000C5B7EFF2FFC5371402401C403707FFF86D
:10045000611193E717001CC05C404145F98F5CC0F7
:100460001C403707F7FE7D17F98F1CC01C4037076B
:10047000FCFF7D17F98F1CC05C4041777D17F98F19
:100480005CC0B7079F001CC441261C4C3706020005
:1004900093E707021CCCB717014003A707409386D8
:1004A00007401377F7F023A0E74003A7074013673F
:1004B000070823A0E74089479CCA02C002C21C4C1F
:1004C00037070140A16693E717001CCC5C43D58F2A
:1004D0005CC31C404167B7160240D98F1CC0096736
:1004E0009C42F18F3EC2824785073EC0924781E71A
:1004F0008247E397E7FEB71702409C431397E70054
:100500006355070485473EC212478547631DF702BE
:10051000B72702409843B7160240719B98C398438F
:1005200098C3B7170240D84313670702D8C3D8430C
:10053000719BD8C3D84313671700D8C31147DC4257
:10054000B18BE39EE7FE21018DB602C275BFEFF2CB
:100550003FB5371702405C43370400209146B18B0A
:100560001304C4016385D700A1466380D704B7375D
:100570006E01938707601CC0B7160240DC4208403A
:10058000918313F7F700B70700209387C700BA9746
:100590008C23DC4293F5F50F93F707083357B5002A
:1005A00099E30D3E2A8718C009B65C43B777DC0291
:1005B000938707C0C9B701A0970100209381012943
:1005C000138181FB1305000A97050020938585A3FD
:1005D00017060020130606A363FAC5008322050050
:1005E00023A0550011059105E3EAC5FE170500009B
:1005F00013058560970500209385C5A01706002088
:100600001306C6A463FAC5008322050023A0550083
:1006100011059105E3EAC5FE17050020130505A3A2
:100620009385C1806377B500232005001105E36D34
:10063000B5FEB722000093820288739002308D428B
:1006400073904280970200009382C29B93E2320033
:1006500073905230EFF0FFDE97020000938222D2B7
:1006600073901234730020301C4141677917F98F61
:100670001CC1232005002322050023240500B70701
:10068000024023260500138787006317E500D8433F
:100690001367F700D8C382801387C7016316E5008C
:1006A000D8431367070FFDB7138707036318E500E7
:1006B000D8438566938606F0558FE9BF13874704B4
:1006C0006315E500D843BD66C5BF1387870563166C
:1006D000E500D843B7060F00C5B71387C7066316F2
:1006E000E500D843B706F000C1BF13870708E3143D
:1006F000E5FAD843B706000FC1B71841E177BD0747
:1007000094517D8F9C45D58F9449D58FD449D58FF1
:10071000944DD58FD44DD58FD451D58F9455D58F39
:10072000D98F1CC1DC455CC19C411CC5DC415CC54A
:1007300082801C4189C593E717001CC182804167F4
:100740007917F98FDDBF944593F7060193F2F60010
:1007500081C7DC41B3E2F20083D3050093F7F30FC6
:10076000A5C303230500611122C226C081471304DB
:1007700080029304800405473316F70033F7C30063
:100780006312E602939527003D473317B7001347DE
:10079000F7FF33736700B395B20033E36500639DE1
:1007A000860050C985072147E397E7FC12442320C0
:1007B0006500824421018280E39696FE10C9DDB770
:1007C0008280B707002023A6A7048280B7170240C3
:1007D0009843C176FD16758F98C39843B706FCFF02
:1007E000FD16758F98C341676307E500370704005E
:1007F0006307E50082809843498F98C382809843BD
:10080000B7060500558FD5BF371702401C430E05AC
:1008100093F777F05D8D08C38280371702405C4301
:1008200093F7F7F05D8D48C38280EFF27F8737172B
:1008300002405C4391462A84B18B6385D700A14670
:100840006380D708B7376E01938707601CC0B7165F
:100850000240DC42918313F7F700B707002093872B
:100860004703BA978C23DC42184093F5F50F93F7B2
:1008700007083355B70081E73A85EFF0BF8548C0D8
:1008800008C448C4B7170240DC438D46AD83FD8BD6
:1008900013D737008A07F18BD98F13F6370113F777
:1008A000370063F4C600138747FFB707002093871C
:1008B0000702BA978C23EFF0FF8108C86FF0EFFEB4
:1008C0005C43B777DC02938707C049B799C53717F0
:1008D00002405C4B5D8D48CB8280B7170240D84BFD
:1008E0001345F5FF798DC8CB828099C53717024033
:1008F0001C4F5D8D08CF8280B7170240984F13457B
:10090000F5FF798D88CF828099C5371702405C4FFB
:100910005D8D48CF8280B7170240D84F1345F5FF51
:10092000798DC8CF82801E2137370140130707C059
:10093000C207C1836306E500370700406316E50080
:10094000BA2193F7F7F8D98FFA2193F7F7CFC207B7
:10095000C183D98F1EA1DE215EB59E211EB5B7379A
:100960000140938707C06314F5009C251EB9854795
:100970005EA982801E31922103D32500C207C18364
:10098000F99BC207C1831EB11E3156211A2DC20721
:10099000C183420741831377C7F8518F9225F59B96
:1009A000C20633666600D18F37360140130606C093
:1009B000C1826310C502B225DD9B03D3E500D18F50
:1009C000D221ED9B93F6F6CFD18FD2253366660008
:1009D000D18E56A11AADFA2158D91EB182801E219E
:1009E00089C593E717001EA18280C207C183F99BC6
:1009F000C207C183CDBF8357450491C52167D98FF5
:100A00002312F5048280C607C583DDBF5E2501C6BB
:100A1000DD8D4EA5828093C5F5FFFD8DDDBFEFF224
:100A20002FE8ED376FF06FE81E2189C593E70708BF
:100A30001EA18280C207C18393F7F7F7C207C18363
:100A4000C5BF1E2DC207C183DD9BDD8D0EAD82802B
:100A5000EFF20FE51629F577FD17F58FF621DA2568
:100A60002111D58F1EA95625FD779387379FF58FC6
:100A7000D6212A842EC0D58F9625D58FB625D58F21
:100A80005EA55E29C207C18393F7F7CF5D8F5AA990
:100A90004800613BB7470140938707808245631256
:100AA000F406C2475A24139517003E9542070E05D7
:100AB00041873E958C41635807048605EFF08FE12E
:100AC000930540062AC0EFF0EFE0824793144500FB
:100AD000930540063E85EFF0AFE25E24C207C18772
:100AE00063D507020E059305400613052503EFF0B5
:100AF0006FDE1D89C98CC204C18006A461016FF03C
:100B0000CFDAB24745B78A0555BF120593054006AF
:100B100013052503EFF00FDC3D89E9BF91C55E2584
:100B20000967D98F5EA582805A25F977FD17F98F5D
:100B3000D5BFEFF2EFD6B707002003A5C701B71561
:100B40007A0093850520EFF0EFD81375F50F238514
:100B5000A18093175500898F8A073E950E0523942F
:100B6000A1806FF08FD4EFF2AFD337F400E05C4098
:100B7000AA85F99B5CC003D58180EFF0AFD308C88C
:100B8000232404001C4093E717001CC0B7F700E0C3
:100B9000D843058B75DF9843799B98C36FF0EFD0EE
:100BA000EFF20FD02A841165111185451305050256
:100BB0002D3B930700027C80371501408D473EC2D4
:100BC0008A85E147130505403EC4B53E22C6374439
:100BD0000140B70708006C00130504803ECA02C834
:100BE000231C0100B535854513050480053F7101BF
:040BF0006FF0AFCB28
:100BF400010000000A00320050000000010203045A
:100C040005060708010203040506070800127A0016
:100C14000204060804080C100810182010203040A4
:100C24002040608001020304050607080102030452
:080C340005060708000000009E
:00000001FF
