:100000006F00805A00000000DA010000DC010000EF
:1000100000000000000000000000000000000000E0
:1000200000000000000000000000000000000000D0
:10003000A605000000000000A6050000000000006A
:10004000A6050000A6050000A6050000A605000004
:10005000A6050000A6050000A6050000A6050000F4
:10006000A6050000A6050000A6050000A6050000E4
:10007000A6050000A6050000A6050000A6050000D4
:10008000A6050000A6050000A6050000A6050000C4
:10009000A6050000A6050000A6050000000000005F
:1000A000511126C022C206C4828282441244A24058
:1000B00031018280634E050263C305042E86AA8542
:1000C0007D5515C285466378B6006356C0000606A6
:1000D0008606E36CB6FE014563E4C500918D558D3F
:1000E00085820582F5FA82808682C93F2E858282CA
:1000F0003305A04063D70500B305B040C1B7B305D1
:10010000B0408682653F3305A0408282868263C705
:100110000500634905005D372E858282B305B04036
:10012000E35B05FE3305A040513F3305B0408282BA
:1001300000003D432A876373C3029377F700BDEF46
:10014000ADE5937606FF3D8ABA960CC34CC30CC747
:100150004CC74107E36BD7FE11E28280B306C34070
:100160008A069702000096966780A6002307B700CC
:10017000A306B7002306B700A305B7002305B70001
:10018000A304B7002304B700A303B7002303B700F9
:10019000A302B7002302B700A301B7002301B700F1
:1001A000A300B7002300B700828093F5F50F939664
:1001B0008500D58D93960501D58D61B7939627005F
:1001C0009702000096968682E78086FA9680C1178D
:1001D0001D8F3E96E374C3F8A5B701A0B707EFBE25
:1001E00037E700E0938707083CC701A0EFF25FEB19
:1001F000AA840565130141FD2E84130505828545FA
:1002000032C002C802CA02CC02CE02D002D202D44C
:1002100002C202C4231601009D2D9147FC803715B0
:100220000140E1473ECC0C088D47130505403ECA0E
:1002300019236082373401404C00130504C06484E4
:100240002315010023130100230601008525024622
:10025000C167938707076C08130504C03ECE2311BE
:10026000C10223120102512D130504C08145EF0084
:10027000A0758545130504C0EF0060731301C1022A
:100280002DB5EFF2FFE11301C1FC2A842EC2B28426
:1002900081451306C002280036C0613D85450545ED
:1002A000C12B2285552E924782462C003EC4C14761
:1002B0003EC8930700083ECE930700103ED0930738
:1002C00000403ED2930700023ED422858D6736CA95
:1002D0003ED626C602CC02D8092985452285912121
:1002E00013014103D9B3EFF2BFDB1165111185454D
:1002F0001305050202C002C202C402C602C802CA35
:1003000002CC7123930700027C80371401408D4793
:100310003EC28A85E147130504403EC4292993075C
:1003200000047C808A859147130504403EC4212146
:10033000F16737440140938707203EC66C00B7073A
:100340000C00130504803ECA02C8231C010061256D
:10035000854513050480EF00C0747101B9B3EFF255
:100360003FD4411185451305000302C202C402C6F1
:10037000392BB71601400D4413078002E1474C00AA
:10038000138506403AC67C8222C47526B716014002
:100390008547C1444C00138506407C823EC022C480
:1003A00026C6512E93068006130780024C0037158F
:1003B000014074823AC622C4BD2E82474C003715D4
:1003C00001407C8222C426C6BD264101F9B9EFF264
:1003D0003FCD0545F92EB1289D22F92D71651305F4
:1003E0000520092F37040020FD3D953F03560400EA
:1003F000B1659385F5B713054006CD3B13060400A0
:1004000037050240373401408D46930544C3130538
:100410008505853D054693050010130504C0592345
:100420008545130504C03D2B8545130504C0B9233C
:1004300001A0EFF2FFC6371402401C403707FFF857
:10044000611193E717001CC05C404145F98F5CC007
:100450001C403707F7FE7D17F98F1CC01C4037077B
:10046000FCFF7D17F98F1CC05C4041777D17F98F29
:100470005CC0B7079F001CC491261C4C37060200C5
:1004800093E707021CCCB717014003A707409386E8
:1004900007401377F7F023A0E74003A7074013674F
:1004A000070823A0E74089479CCA02C002C21C4C2F
:1004B00037070140A16693E717001CCC5C43D58F3A
:1004C0005CC31C404167B7160240D98F1CC0096746
:1004D0009C42F18F3EC2824785073EC0924781E72A
:1004E0008247E397E7FEB71702409C431397E70064
:1004F0006355070485473EC212478547631DF702CF
:10050000B72702409843B7160240719B98C398439F
:1005100098C3B7170240D84313670702D8C3D8431C
:10052000719BD8C3D84313671700D8C31147DC4267
:10053000B18BE39EE7FE21018DBE02C275BFEFF2D3
:100540003FB6371702405C43370400209146B18B19
:10055000130484016385D700A1466380D704B737AD
:100560006E01938707601CC0B7160240DC4208404A
:10057000918313F7F700B707002093878700BA9796
:100580008C23DC4293F5F50F93F707083357B5003A
:1005900099E32D362A8718C009BE5C43B777DC0281
:1005A000938707C0C9B701A09701002093818129D3
:1005B000138101FC1305000A97050020938585A48B
:1005C00017060020130606A463FAC500832205005F
:1005D00023A0550011059105E3EAC5FE17050000AB
:1005E0001305C556970500209385C5A11706002061
:1005F000130646A563FAC5008322050023A0550013
:1006000011059105E3EAC5FE17050020130585A332
:10061000938581806377B500232005001105E36D84
:10062000B5FEB722000093820288739002308D429B
:1006300073904280970200009382C29C93E2320042
:1006400073905230EFF0FFDE97020000938262D881
:1006500073901234730020301C4141677917F98F71
:100660001CC1232005002322050023240500B70711
:10067000024023260500138787006317E500D8434F
:100680001367F700D8C382801387C7016316E5009C
:10069000D8431367070FFDB7138707036318E500F7
:1006A000D8438566938606F0558FE9BF13874704C4
:1006B0006315E500D843BD66C5BF1387870563167C
:1006C000E500D843B7060F00C5B71387C706631602
:1006D000E500D843B706F000C1BF13870708E3144D
:1006E000E5FAD843B706000FC1B71841E177BD0757
:1006F00094517D8F9C45D58F9449D58FD449D58F02
:10070000944DD58FD44DD58FD451D58F9455D58F49
:10071000D98F1CC1DC455CC19C411CC5DC415CC55A
:1007200082801C4189C593E717001CC18280416704
:100730007917F98FDDBF944593F7060193F2F60020
:1007400081C7DC41B3E2F20083D3050093F7F30FD6
:10075000A5C303230500611122C226C081471304EB
:1007600080029304800405473316F70033F7C30073
:100770006312E602939527003D473317B7001347EE
:10078000F7FF33736700B395B20033E36500639DF1
:10079000860050C985072147E397E7FC12442320D0
:1007A0006500824421018280E39696FE10C9DDB780
:1007B0008280B707002023A0A70482803717024059
:1007C0001C430E0593F777F05D8D08C38280EFF22E
:1007D0003F8D371702405C4391462A84B18B638575
:1007E000D700A1466380D708B7376E0193870760AB
:1007F0001CC0B7160240DC42918313F7F700B7071D
:10080000002093870703BA978C23DC42184093F5A6
:10081000F50F93F707083355B70081E73A85EFF0F6
:10082000FF8948C008C448C4B7170240DC438D465E
:10083000AD83FD8B13D737008A07F18BD98F13F661
:10084000370113F7370063F4C600138747FFB70774
:1008500000209387C701BA978C23EFF03F8608C822
:100860006FF0BF845C43B777DC02938707C049B75A
:1008700099C5371702405C4B5D8D48CB8280B71716
:100880000240D84B1345F5FF798DC8CB828099C5BE
:10089000371702401C4F5D8D08CF8280B71702408A
:1008A000984F1345F5FF798D88CF82801E21373709
:1008B0000140130707C0C207C1836306E50037077D
:1008C00000406316E500BA2193F7F7F8D98FFA21B3
:1008D00093F7F7CFC207C183D98F1EA1DE215EB582
:1008E0009E211EB5B7370140938707C06314F500FA
:1008F0009C251EB985475EA982801E31922103D3B3
:100900002500C207C183F99BC207C1831EB11E31F6
:1009100056211A2DC207C183420741831377C7F8B6
:10092000518F9225F59BC20633666600D18F37360C
:100930000140130606C0C1826310C502B225DD9BCB
:1009400003D3E500D18FD221ED9B93F6F6CFD18F63
:10095000D22533666600D18E56A11AADFA2158D938
:100960001EB182801E2189C593E717001EA18280D7
:10097000C207C183F99BC207C183CDBF835745041A
:1009800091C52167D98F2312F5048280C607C583DC
:10099000DDBF5E2501C6DD8D4EA5828093C5F5FFC6
:1009A000FD8DDDBFEFF2CFEFED376FF00FF01E21C1
:1009B00089C593E707081EA18280C207C18393F708
:1009C000F7F7C207C183C5BF1E2DC207C183DD9BD8
:1009D000DD8D0EAD8280EFF2AFEC1629F577FD17B5
:1009E000F58FF621DA252111D58F1EA95625FD7721
:1009F0009387379FF58FD6212A842EC0D58F9625D1
:100A0000D58FB625D58F5EA55E29C207C18393F722
:100A1000F7CF5D8F5AA948005D3BB74701409387E8
:100A2000078082456312F406C2475A2413951700C3
:100A30003E9542070E0541873E958C416358070459
:100A40008605EFF0AFE7930540062AC0EFF00FE709
:100A5000824793144500930540063E85EFF0CFE8AA
:100A60005E24C207C18763D507020E0593054006C1
:100A700013052503EFF08FE41D89C98CC204C180E2
:100A800006A461016FF06FE2B24745B78A0555BF12
:100A900012059305400613052503EFF02FE23D896B
:100AA000E9BF91C55E250967D98F5EA582805A2569
:100AB000F977FD17F98FD5BFEFF28FDEB70700206A
:100AC00003A58701B7157A0093850520EFF00FDFA6
:100AD0001375F50FB70700202383A704931755005C
:100AE000898F8A073E950E05B70700202392A70439
:100AF0006FF0AFDBEFF2CFDA2A8411651111854573
:100B0000130505026933930700027C803715014005
:100B10008D473EC28A85E147130505403EC4213911
:100B200022C637440140B70708006C001305048053
:100B30003ECA02C8231C0100793D85451305048087
:080B40008D3771016FF06FD6D3
:100B48000A003200500000000102030405060708ED
:100B5800010203040506070800127A0002040608C9
:100B680004080C1008101820102030402040608025
:100B78000102030405060708010203040506070825
:00000001FF
